:020000040800F2
:1000000068070020910100083B16000875120008DF
:1000100039160008C5040008451800080000000053
:10002000000000000000000000000000DF170008D2
:10003000E104000800000000DD170008E1170008D7
:10004000AB010008AB010008AB010008AB010008E0
:10005000AB010008AB010008AB010008AB010008D0
:10006000AB010008AB010008AB010008AB010008C0
:10007000AB010008AB010008AB010008AB010008B0
:10008000C9040008D5040008AB010008AB01000852
:10009000AB010008AB010008AB010008AB01000890
:1000A000AB010008AB010008AB010008AB01000880
:1000B000AB010008AB010008AB010008AB01000870
:1000C000AB010008AB010008AB010008AB01000860
:1000D000AB010008AB010008AB010008AB01000850
:1000E000AB010008AB010008AB01000800F002F80A
:1000F00000F03EF80AA090E8000C82448344AAF184
:100100000107DA4501D100F033F8AFF2090EBAE881
:100110000F0013F0010F18BFFB1A43F0010318473B
:10012000DC1F0000FC1F0000103A24BF78C878C113
:10013000FAD8520724BF30C830C144BF04680C60ED
:10014000704700000023002400250026103A28BF35
:1001500078C1FBD8520728BF30C148BF0B60704739
:100160001FB59DE8030000F0CFF81FBD10B510BD0E
:1001700000F026F91146FFF7F3FF01F075FB00F0E0
:1001800044F903B4FFF7F2FF03BC00F075F9000077
:100190000948804709480047FEE7FEE7FEE7FEE71B
:1001A000FEE7FEE7FEE7FEE7FEE7FEE70448054957
:1001B000054A064B7047000043180008ED00000890
:1001C0006801002068070020680300206803002001
:1001D00070B5064600F07CF8056806F10B0020F0CB
:1001E0000704B4429CBF002070BD2B466A68BAB1B8
:1001F0001068A04210D304F1080188423CBF506847
:10020000586007D35168101941601168091B0160DB
:1002100058601460101D70BD13465268002AE7D163
:100220002146284600F05CF80028DED170BD70B58C
:100230000446051F00F04CF80068002C14BF446809
:1002400070BD002C18BFAC423CBF20466468F8D398
:1002500001680A18AA4218BF456003D12A680546FA
:100260001144016028684119A1421CBF6C6070BD37
:100270006168696021680844286070BD4FF0000221
:1002800000B5134694469646203922BFA0E80C508C
:10029000A0E80C50B1F12001BFF4F7AF090728BF67
:1002A000A0E80C5048BF0CC05DF804EB890028BFE3
:1002B00040F8042B08BF704748BF20F8022B11F00C
:1002C000804F18BF00F8012B704770477047704788
:1002D000004870470C010020704770477047704716
:1002E00038B504460A4600206946AFF3008000286E
:1002F00008BF38BD02460099204600F03FF80120B3
:1003000038BD012000F054B8F8B5AFF300800546C1
:1003100000200C46102000BF0646A819A0420DD9A7
:10032000324669460020AFF30080070008BF00F0A6
:100330003FF80098A04218BF0546C419FFF7C8FF50
:1003400005600746F01D20F007004619284600F01A
:100350000AF8B44208BFF8BDA21B31463868BDE8B0
:10036000F84000F00BB800210160C0E901107047AF
:100370001020704700487047040100200346406881
:100380008C46002818BF88423CBF03464068F8D31B
:1003900018681844884207D00CF1030020F00700C9
:1003A000001D411A521A0146081D0A60FFF73FBF9F
:1003B00010B500F039F8BDE8104000F02FB87047D4
:1003C0007546FFF7D7FFAE4605006946534620F055
:1003D0000700854618B020B5FFF7E8FEBDE82040CD
:1003E0004FF000064FF000074FF000084FF0000BF1
:1003F00021F00701AC46ACE8C009ACE8C009ACE8A4
:10040000C009ACE8C0098D46704710B50446AFF38B
:1004100000802046BDE81040FFF7B3BE002801D0A1
:1004200000F02AB87047000010B5012805D000215F
:1004300003A000F027F8012010BD09A1F8E7000093
:1004400053494752544D454D3A204F7574206F66BD
:100450002068656170206D656D6F72790000000025
:100460003A2048656170206D656D6F727920636F09
:10047000727275707465640001491820ABBEFEE7A6
:100480002600020070B505460C460A2000E06D1CEF
:1004900000F011F835B128780028F8D102E0641C8A
:1004A00000F009F814B120780028F8D1BDE87040B8
:1004B0000A20AFF3008008B569468DF800000320DC
:1004C000ABBE08BDFEE70000014800F00DB800001B
:1004D000C0000020014800F007B800007C000020A8
:1004E000704772B6FEE700002DE9F05FC16B0C6843
:1004F00001680B68D0F840C0042202FA0CF2494DA2
:10050000DFF824A1494E4A4FDFF828B1DFF828E18F
:1005100022422CD05A072AD50A68920603D40A68C8
:1005200022F004020A600168A94201D1042219E004
:10053000514501D1402215E0B14202D14FF4806211
:1005400010E0B94202D14FF480420BE0594502D18C
:100550004FF4802206E0714502D14FF4800201E0A1
:100560004FF080622F4908394A60C16A3BE04FF082
:10057000020808FA0CF818EA040F4FF000094FF0CF
:10058000010235D05FEA837832D50B689B0605D42B
:100590000B6823F00A030B6080F821200168A94250
:1005A00001D1022219E0514501D1202215E0B142CA
:1005B00002D14FF4007210E0B94202D14FF4005260
:1005C0000BE0594502D14FF4003206E0714502D1EB
:1005D0004FF4001201E04FF00072124908394A60EE
:1005E00080F82090816A00291AD0BDE8F05F0847A2
:1005F000082505FA0CF5254212D01B0710D50B680B
:1006000023F00E030B6090F84010C36B02FA01F167
:100610005960826380F8212080F82090016BE2E726
:10062000BDE8F09F080002401C000240300002407C
:1006300044000240580002406C00024030B528B32C
:1006400008C8134914221944B1FBF2F18900C163AF
:1006500010498163022141771A6843F6F0718A4399
:10066000D0E900142143D0E902452C432143046919
:1006700021434469214384692143114319600021C6
:100680004163012242770177084630BD012030BD29
:10069000F8FFFDBF000002402DE9F84FDFF8B891E8
:1006A0000024A9F1040B23460F2709F1040AABF13A
:1006B000040EC9E00125A5402A40AA427DD1674E1B
:1006C000D1F804C0ACEB0608B44532D014DCBCF160
:1006D000030F3AD009DCBCF1000F2AD0BCF1010FA6
:1006E0001CD0BCF1020F31D11DE0BCF1110F17D0AD
:1006F000BCF1120F2AD119E0B8F5881F19D006DC19
:10070000B8F5803F15D0B8F5801F1FD111E0B8F5BE
:10071000001F0ED0B8F5041F18D10AE0CB6815E011
:10072000CB681B1D12E0CB6808330FE0CB680C339D
:100730000CE08B682BB1012B4FF0080303D045610F
:1007400004E0042302E0056100E00023FF2A01D851
:10075000064601E000F104064FEA840501D9A5F13F
:100760002005D6F8008007FA05FC28EA0C0803FAF1
:1007700005F548EA0508C6F800804D68ED0062D529
:10078000374DAE6946F00106AE61AD6924F003064F
:1007900005F001050095334D06EB050CDCF808501B
:1007A000A607360F07FA06F825EA0805DFF8B8802D
:1007B000404503D14FF0000817E044E0DFF8AC807B
:1007C000404502D14FF001080FE0DFF8A48040451A
:1007D00002D14FF0020808E0DFF89880404502D1CE
:1007E0004FF0030801E04FF0040808FA06F848EA61
:1007F0000508CCF808804D68D9F80060ED024D4638
:1008000001D5164300E096432E604D68DAF800608B
:10081000AD02554601D5164300E096432E604D6863
:10082000DBF80060AD035D4601D5164300E096435A
:100830002E604D68DEF80060ED03754601D5164365
:1008400000E096432E60641C0D682A46E5407FF464
:1008500031AFBDE8F88F000008040140000011101E
:10086000001002400000014000080140000C01405F
:1008700000100140001401400AB1016170470904F1
:10088000FBE7000001488068704700001800002066
:1008900070B5040025D094F83D00002520B984F8F7
:1008A0003C50204600F04EF9242084F83D0020689A
:1008B000016821F0010101602068016841F40041F4
:1008C00001602068016821F40041016000F0F8FA3D
:1008D0004D4A6168914201D84C4900E04C49884238
:1008E00001D2012070BD4B492368B0FBF1F15E6875
:1008F00026F03F060E435E606368934206D94FF4CC
:10090000967359434FF47A73B1FBF3F12368491C92
:100910001E6A26F03F06314319626168914210D881
:100920004900401EB0FBF1F2521CC2F30B02042A34
:1009300001D2042022E0B0FBF1F0401CC0F30B0018
:100940001CE0A268F2B301EBC10303EB0116431EE6
:10095000B3FBF6F35B1C43F480431B0549D092B311
:1009600001EBC10202EB0111401EB0FBF1F0401C93
:10097000C0F30B0040F4804040F400402168CA6995
:100980004CF6FF739A431043C861D4E90710014342
:100990002068026822F0C00211430160D4E903011B
:1009A00001432068826848F2FF339A431143816013
:1009B000D4E9050108432168CA6822F0FF02104308
:1009C000C86001E00EE016E02068016841F0010116
:1009D00001602564202084F83D00256384F83E50A2
:1009E000002070BD01EB4106431EB3FBF6F35B1C18
:1009F000B3E70120C2E701EB4101401EB0FBF1F07B
:100A0000401CC0F30B00B7E7A086010080841E00E5
:100A100000093D0040420F002DE9F84F1F46904667
:100A20008A460446DDF82890FFF72CFF054694F827
:100A30003D0020287FD119230122404920460095FE
:100A400000F0AAFC002876D194F83C00012872D06E
:100A5000012084F83C0020680168C90703D10168BF
:100A600041F0010101602068016821F4006101602A
:100A7000212084F83D00102084F83E0000262664E2
:100A8000C4F824806785608D20852D48E0622B4660
:100A90004A465146204600F005FC90B9206841695D
:100AA0008069009036E02A464946204600F01AFD4B
:100AB00050B1206C042804D12068016841F4007111
:100AC00001600120BDE8F88F606A21680078086144
:100AD000606A401C6062618D491E6185218D491EDE
:100AE00089B2218522685369DB435B070BD451B17E
:100AF00000781061606A401C6062608D401E6085F5
:100B0000208D401E20852A464946204600F018FCCC
:100B10000028CED1208D0028C5D154F83D0B0168A6
:100B200041F400710160202004F81E09E677667721
:100B30000020C7E7FFE70220C4E700000200100022
:100B40000000FFFFF0B585B0002406460094019434
:100B50000294039400682449884242D1234DA86935
:100B600040F00800A861A869694600F008000490F8
:100B7000C020009012200190032003901C48FFF732
:100B80008BFDE86940F40010E861E8691A4D00F453
:100B9000001004901748C5E900048027C5E9024702
:100BA0002C616C61AC612846EC61FFF747FD08B130
:100BB000FFF797FCB5636E620F4D0E48443514384D
:100BC00001C5102091C50C4845F8104944306C61AE
:100BD000AC61EC61FFF732FD08B1FFF782FC756391
:100BE0006E6205B0F0BD00000054004000100240ED
:100BF000000C0140800002407C0000201CB58DF8F4
:100C000004204FF0FF320092120C8DF8053002EAFA
:100C10004101022301AAFFF7FFFE1CBD2DE9F843A5
:100C20008146089C1E4617468846601CFFF7D0FA8E
:100C300005460770002004E0315C2A18401C517002
:100C4000C0B2A042F8D34FF0FF30010C009001EA8F
:100C50004801631C2A464846FFF7DEFE2846BDE8E9
:100C6000F843FFF7E4BA00000248816802781144B3
:100C70008160704718000020074810B5016841F0F6
:100C800010010160032000F073F80F2000F006F857
:100C900000F024F8002010BD0020024070B50D4D7A
:100CA00004464FF47A712878B1FBF0F00A490968DC
:100CB000B1FBF0F000F0CAFA48B9102C07D20022BC
:100CC0002146501E00F034F800206C6070BD0120F9
:100CD00070BD000018000020240000200B4808B55B
:100CE000816941F001018161816901F00101009197
:100CF000C16941F08051C161C06900F0805000902D
:100D00000348416821F0E061416008BD00100240E5
:100D100000000140002809DB00F01F020121914082
:100D20004009800000F1E020C0F800117047000089
:100D3000F0B40E4B1B680C46C3F30223C3F1070546
:100D4000042D00D90425191D072901D2002300E034
:100D5000DB1E012606FA05F1491E214099409E40FE
:100D6000761E16403143F0BC00F06DBD0CED00E086
:100D7000064900F0070208684FF6FF03184040EAF2
:100D80000220034A10430860704700000CED00E0A9
:100D90000000FA052DE9F0470F46050061D0434EEB
:100DA000306800F00700B84209D2306820F0070030
:100DB00038433060306800F00700B84251D12868ED
:100DC0003B4C810712D5400703D5606840F4E060D2
:100DD00060602878000703D5606840F46050606068
:100DE0006068A96820F0F000084360602878C007B8
:100DF00028D06868012810D02168022810D08907FF
:100E000000292EDA616821F0030101436160FFF7D8
:100E100039FD804641F288390DE021688903EFE70A
:100E20008901EDE7FFF72EFDA0EB0801494502D946
:100E30000320BDE8F0876068696800F00C00B0EB43
:100E4000810FEFD1306800F00700B8420BD930684D
:100E500020F0070038433060306800F00700B842E7
:100E600001D00120E5E72878400705D56068E968EA
:100E700020F4E060084360602878000706D56068C9
:100E8000296920F4605040EAC100606000F028F851
:100E90006168084AC1F30311515CC8400649086003
:100EA00006480068FFF7FAFE0020C2E70020024073
:100EB00000100240E2200008240000201C00002056
:100EC0000448054900684968044AC1F30221515C9D
:100ED000C84070472400002000100240F2200008A3
:100EE0000E4A51680E4801F00C03042B11D0082B58
:100EF0000FD10C48C1F38343C903C05C0AD55168C4
:100F0000084AC1F34041921E515C054A5043B0FB70
:100F1000F1F0704704494843704700000010024058
:100F200000127A00D220000800093D002DE9F84F98
:100F3000040070D02078C04DC00749D06868C0F365
:100F40008100012807D06868C0F38100022809D118
:100F50006868C00306D52868800339D56068002812
:100F6000E7D035E06068B0F5803F0BD010B1B0F548
:100F7000A02F11D0286820F480302860286820F441
:100F8000802002E0286840F480302860606890B1DA
:100F9000FFF778FC06460AE0286840F480202860C5
:100FA000F0E700BFFFF76EFC801B642873D8286849
:100FB0008003F7D50CE0FFF765FC064605E000BFAF
:100FC000FFF760FC801B6428F0D828688003F7D402
:100FD00020789A4E80074FF001094FF0000839D56C
:100FE000686810F00C0F07D06868C0F38100022811
:100FF00009D16868C00306D42868800714D5206921
:10100000012808D110E02069B0B1C6F80090FFF7C0
:1010100039FC074605E00AE1FFF734FCC01B022853
:10102000C4D828688007F7D52868616920F0F800DF
:1010300040EAC10028600DE0C6F80080FFF722FCFE
:10104000074604E0FFF71EFCC01B022823D82868CF
:101050008007F7D4207800072CD57948A169D9B149
:10106000C0F80090FFF70EFC074604E0FFF70AFC0B
:10107000C01B02280FD8686A8007F7D571484FF463
:10108000FA510068B0FBF1F0009000BF0098411EDB
:101090000091FAD20EE080E0C0F80080FFF7F2FB8A
:1010A000074604E0FFF7EEFBC01B022875D8686A0C
:1010B0008007F7D42078400760D5E8690027C00092
:1010C00008D4E86940F08050E861E869012700F041
:1010D000805000905C480168C90513D401688346BC
:1010E00041F480710160FFF7CDFB824606E000BF4E
:1010F000FFF7C8FBA0EB0A0064284ED8DBF800001D
:10110000C005F5D5E06801280AD008B1052813D03C
:10111000286A20F001002862286A20F0040002E01A
:10112000286A40F001002862E06841F2883B98B1EB
:10113000FFF7A8FB82460BE0286A40F00400286213
:10114000EEE700BFFFF79EFBA0EB0A0159455AD816
:10115000286A8007F6D50CE0FFF794FB824605E08D
:10116000FFF790FBA0EB0A0159454CD8286A80078D
:10117000F6D41FB1E86920F08050E861E06988B3D7
:101180006968C1F38101022944D00228C6F8608051
:1011900004D0FFF777FB044638E034E0FFF772FB3A
:1011A000074604E0FFF76EFBC01B02282BD8286817
:1011B0008001F7D4206AB0F5803F05D16868A16846
:1011C00020F4003008436860D4E9080108436968E6
:1011D00021F4741108436860C6F86090FFF752FB71
:1011E000044606E025E000BFFFF74CFB001B022889
:1011F00009D828688001F7D51BE000BFFFF742FB44
:10120000001B022802D90320BDE8F88F286880015E
:10121000F4D40EE00128F7D06868226A00F4803127
:10122000914204D1616A00F47010884201D001201B
:10123000EAE70020E8E70000001002400000424218
:1012400080044242240000200070004010B5401E7F
:10125000B0F1807F01D3012010BD4FF0E024606128
:101260000F21601700F0EFFA0020A0610720206135
:10127000002010BDFEE701684A69D24352050FD431
:101280006FF480624A61002140F8301F20224273CF
:101290008173026942F00402026101730120704708
:1012A00000207047F8B50446C06A1E460D46174632
:1012B000082807D0012805D010F5803F02D0206B08
:1012C000122804D12068016841F48071016013463E
:1012D00000224FF001112046009600F05DF840B169
:1012E00020680068C00502D54FF400702064032018
:1012F000F8BD2069B0F5804F0ED00620216800EAC5
:10130000D51040F0F000086133463A460B492046BC
:1013100000F08AF878B902E005F0FE0000E0E8B2DB
:1013200021680861054933463A46891F204600F086
:101330007BF80028DCD00120F8BD00000800010087
:1013400070B516460D4604461EE02046FFF793FF93
:1013500008B1012070BD681C16D0FFF793FA801BFE
:10136000A84200D885B920684069C04340070BD522
:10137000002044F8300F20216173A073216941F0EF
:10138000200121612073E4E720684069C0434007E1
:10139000DBD4002070BD00002DE9F04798461746C9
:1013A0000D460446C1F30746DDF820902AE000BF51
:1013B000B8F1FF3F26D0FFF765FAA0EB09014145E0
:1013C00002D8B8F1000F1DD12068012E16D0806917
:1013D00025EA00000004000C12D00020B84211D110
:1013E000002044F8300F20216173A073216941F07F
:1013F0002001216120730120BDE8F0874069E7E703
:101400000120EBE72068012E0AD0806925EA000060
:101410000004000C06D00020B842C9D00020EBE741
:101420004069F3E70120F7E72DE9F04798461646B3
:101430000D4604464FF000094FF0200AC1F307475C
:1014400023E020684069C043400515D42068016846
:1014500041F40071016021686FF480604861C4F854
:10146000309084F83DA084F83E90216C41F0040156
:10147000216484F83C9021E0701C06D0FFF702FA4A
:10148000A0EB0800B04203D816B1012F1FD021E015
:101490002068012F15D0806925EA00000004000CA7
:1014A00018D000BF44F8309F84F80DA084F80E9047
:1014B000216941F02001216184F80C900120BDE8F0
:1014C000F087406925EA00000004000CEAD120689A
:1014D000406901E02068806925EA00000004000CF2
:1014E000AFD1ECE770B516460D4604461EE0204627
:1014F000FFF7C1FE08B1012070BD681C16D0FFF7D0
:10150000C1F9801BA84200D885B920684069C04352
:1015100000060BD5002044F8300F20216173A07322
:10152000216941F0200121612073E4E720684069CE
:10153000C0430006DBD4002070BD00000D4808B594
:10154000416941F0010141614069002200F0010060
:10155000009011461020FFF7EBFB1020FFF7DAFB9D
:10156000002211461120FFF7E3FBBDE808401120DF
:10157000FFF7D0BB0010024030B585B000200090CE
:101580000190029003901A48816941F01001816135
:10159000816901F010010491816941F020018161AC
:1015A000816901F020010491816941F004018161A8
:1015B000816901F004010491816941F008018161B0
:1015C00080690C4D00F008004FF4807404900022F4
:1015D00021462846FFF750F901210220CDE90210EB
:1015E000CDE9004169462846FFF756F805B030BD01
:1015F00000100240000C01400D4810B50B4901607D
:101600000C49416000214FF480428160C0E903121F
:1016100041618161C1610162FFF73AF9002803D09D
:10162000BDE81040FEF75DBF10BD00000054004053
:1016300028000020A0860100FEE7FEE770B5002428
:1016400004F1B000C0B200F0B3F8002000F0B0F830
:10165000102000F0ADF82E2000F0AAF800250020A0
:1016600000F0AEF86D1CEDB2802DF8D3641CE4B22E
:10167000082CE5D370BD000070B5064D0024285D30
:1016800000F096F8641CE4B2172CF8D3BDE8704063
:10169000FFF7D4BF0000002010B50446B031C8B237
:1016A00000F086F8102040EA141000F081F804F0F1
:1016B0000F00BDE8104000F07BB800002DE9F047B6
:1016C000203A0024089E0F468146D5B27F2803D9D0
:1016D00000208F1C8146FFB2102B394612D0FFF735
:1016E000DBFF1B4905EB450001EB4005285D0EB112
:1016F000C043C0B200F064F8641CE4B2062CF5D319
:10170000BDE8F087FFF7C8FFDFF8488004EB05115C
:1017100018F801000EB1C043C0B200F051F8641CCB
:10172000E4B2082CF2D37F1CF9B24846FFF7B4FFAD
:101730000024474604EB05103844007A0EB1C0433C
:10174000C0B200F03DF8641CE4B2082CF2D3D7E735
:10175000A8180008D01A00082DE9F8431E461746BD
:10176000894604460025DDF8208014E033464946CA
:101770002046CDF80080FFF7A1FF0C2E10D00834D2
:10178000E4B27A2C01D90C2E0CD0782C01D9102E71
:1017900008D06D1CEDB27A5D002AE7D1BDE8F88370
:1017A000A41DEDE709F10100002400F0FF09F0E7B6
:1017B000034600223C210148FFF720BA2800002000
:1017C00001B582B00120009002AB40223C210248CA
:1017D000FFF724FA0EBD0000280000207047704774
:1017E000FFF742BA30B58FB028216846FEF746FDB4
:1017F00014210AA8FEF742FD01210804CDE90010DA
:101800000024029402250491CDE907504FF4E01022
:1018100009906846FFF78AFB08B172B6FEE70F2011
:10182000CDE90A054FF48060CDE90C4002210AA8F9
:101830000E94FFF7AFFA002801D072B6FEE70FB0A2
:1018400030BD7047FEE70907090E002804DB00F1F0
:10185000E02080F80014704700F00F0000F1E02055
:1018600080F8141D7047000008B5FFF705FAFFF770
:10187000B9FFFFF781FEFFF761FEFFF7BDFEFFF73F
:10188000FBFE0020102303A203210090FFF764FF5A
:10189000FEE7000073686120626F2077616E672049
:1018A0007A68656E6700000000000000000000001C
:1018B000002F000000000700070000147F147F14B1
:1018C00000242A7F2A120062640813230036495537
:1018D000225000000503000000001C22410000000F
:1018E00041221C000014083E08140008083E0808A5
:1018F000000000A060000008080808080000606000
:101900000000002010080402003E5149453E00003E
:10191000427F4000004261514946002141454B3120
:10192000001814127F10002745454539003C4A49EC
:10193000493000017109050300364949493600065E
:101940004949291E000036360000000056360000C6
:101950000008142241000014141414140000412241
:10196000140800020151090600324959513E007C19
:101970001211127C007F49494936003E4141412203
:10198000007F4141221C007F49494941007F0909EC
:101990000901003E4149497A007F0808087F00009C
:1019A000417F4100002040413F01007F0814224157
:1019B000007F40404040007F020C027F007F04080F
:1019C000107F003E4141413E007F09090906003E6B
:1019D0004151215E007F0919294600464949493194
:1019E0000001017F0101003F4040403F001F2040B7
:1019F000201F003F4038403F006314081463000775
:101A00000870080700615149454300007F414100CB
:101A100000552A552A55000041417F00000402016B
:101A20000204004040404040000001020400002049
:101A300054545478007F4844443800384444442087
:101A400000384444487F00385454541800087E0934
:101A500001020018A4A4A47C007F080404780000FC
:101A6000447D4000004080847D00007F10284400B9
:101A70000000417F4000007C04180478007C0804CA
:101A8000047800384444443800FC24242418001806
:101A9000242418FC007C08040408004854545420F2
:101AA00000043F444020003C4040207C001C20407B
:101AB000201C003C4030403C004428102844001CBE
:101AC000A0A0A07C004464544C44141414141414B6
:101AD0000000000000000000000000000000000006
:101AE000000000F80000000000000033300000009B
:101AF00000100C06100C06000000000000000000A2
:101B000040C07840C0784000043F04043F04040013
:101B1000007088FC08300000001820FF211E000023
:101B2000F008F000E018000000211C031E211E0038
:101B300000F00888700000001E21232419272110BE
:101B400010160E0000000000000000000000000061
:101B5000000000E018040200000000071820400008
:101B600000020418E00000000040201807000000F8
:101B7000404080F0804040000202010F010202005C
:101B8000000000F0000000000101011F0101010040
:101B9000000000000000000080B0700000000000A5
:101BA000000000000000000000010101010101012E
:101BB00000000000000000000030300000000000C5
:101BC000000000008060180400601806010000009A
:101BD00000E010080810E000000F102020100F0097
:101BE000001010F8000000000020203F202000001E
:101BF0000070080808887000003028242221300076
:101C000000300888884830000018202020110E007D
:101C10000000C02010F8000000070424243F240026
:101C200000F80888880808000019212020110E00FB
:101C300000E0108888180000000F112020110E000D
:101C400000380808C83808000000003F0000000005
:101C50000070880808887000001C222121221C00C6
:101C600000E010080810E0000000312222110F00EF
:101C7000000000C0C0000000000000303000000084
:101C800000000080000000000000806000000000F4
:101C9000000080402010080000010204081020000D
:101CA0004040404040404000040404040404040058
:101CB00000081020408000000020100804020100ED
:101CC000007048080808F0000000003036010000ED
:101CD000C030C828E810E0000718272423140B00A0
:101CE0000000C038E0000000203C2302022738201A
:101CF00008F8888888700000203F202020110E00FE
:101D0000C0300808080838000718202020100800F4
:101D100008F808080810E000203F202020100F00DD
:101D200008F88888E8081000203F202023201800A9
:101D300008F88888E8081000203F20000300000011
:101D4000C03008080838000007182020221E0200B2
:101D500008F808000008F808203F210101213F2071
:101D6000000808F8080800000020203F202000009C
:101D700000000808F8080800C08080807F0000008C
:101D800008F888C028180800203F200126382000C5
:101D900008F8080000000000203F2020202030002C
:101DA00008F8F800F8F80800203F003F003F200046
:101DB00008F830C00008F808203F200007183F004E
:101DC000E01008080810E0000F10202020100F007D
:101DD00008F808080808F000203F21010101000070
:101DE000E01008080810E0000F18242438504F00B5
:101DF00008F8888888887000203F2000030C302075
:101E000000708808080838000038202121221C00B2
:101E1000180808F8080818000000203F20000000FB
:101E200008F808000008F808001F202020201F00E4
:101E30000878880000C83808000007380E01000044
:101E4000F80800F80008F800033C0700073C03000E
:101E5000081868808068180820302C03032C302074
:101E60000838C800C83808000000203F20000000E3
:101E700010080808C838080020382621202018003B
:101E8000000000FE020202000000007F404040000F
:101E9000000C30C000000000000000010638C00047
:101EA00000020202FE000000004040407F000000EF
:101EB0000000040202020400000000000000000014
:101EC0000000000000000000808080808080808012
:101ED00000020204000000000000000000000000FA
:101EE00000008080808000000019242222223F20F0
:101EF00008F8008080000000003F112020110E0033
:101F00000000008080800000000E112020201100C1
:101F1000000000808088F800000E112020103F2073
:101F20000000808080800000001F222222221300F7
:101F3000008080F0888888180020203F2020000042
:101F40000000808080808000006B949494936000F7
:101F500008F8008080800000203F210000203F2002
:101F600000809898000000000020203F2020000002
:101F7000000000809898000000C08080807F0000F2
:101F800008F8000080808000203F24022D302000CF
:101F9000000808F8000000000020203F202000007A
:101FA0008080808080808000203F20003F20003F94
:101FB0008080008080800000203F210000203F20A2
:101FC0000000808080800000001F202020201F0053
:101FD000808000808000000080FFA12020110E0082
:101FE0000000008080808000000E112020A0FF8073
:101FF000808080008080800020203F212000010020
:102000000000808080808000003324242424190074
:10201000008080E0808000000000001F2020000081
:102020008080000000808000001F202020103F20C2
:10203000808080000080808000010E300806010052
:1020400080800080008080800F300C030C300F00F7
:1020500000808000808080000020312E0E31200022
:10206000808080000080808080818E701806010052
:1020700000808080808080000021302C2221300070
:1020800000000000807C020200000000003F404091
:102090000002027C800000000040403F0000000081
:1020A00000000000FF00000000000000FF00000032
:1020B0000000000000000000000000000000000020
:1020C0000000000000000000000000000000000010
:1020D000010202030405060708090A0B0C0D0E0F86
:1020E00010100000000000000000010203040607B9
:1020F0000809000000000102030400001C21000880
:1021000000000020280000002801000844210008E9
:10211000280000204007000044010008AED580A838
:102120003FD30040A1C8DA1281CFD9F1DB30A4A699
:102130008D14AF000100000010000000000000003E
:0421400000127A000F
:04000005080000ED02
:00000001FF
